{
  "_format": "hh-sol-artifact-1",
  "contractName": "TokenVesting",
  "sourceName": "src/TokenVesting.sol",
  "abi": [
    {
      "inputs": [],
      "stateMutability": "nonpayable",
      "type": "constructor"
    },
    {
      "anonymous": false,
      "inputs": [
        {
          "indexed": true,
          "internalType": "address",
          "name": "user",
          "type": "address"
        },
        {
          "indexed": true,
          "internalType": "address",
          "name": "newOwner",
          "type": "address"
        }
      ],
      "name": "OwnershipTransferred",
      "type": "event"
    },
    {
      "anonymous": false,
      "inputs": [
        {
          "indexed": true,
          "internalType": "address",
          "name": "beneficiary",
          "type": "address"
        },
        {
          "indexed": false,
          "internalType": "uint256",
          "name": "amount",
          "type": "uint256"
        },
        {
          "indexed": false,
          "internalType": "uint256",
          "name": "timestamp",
          "type": "uint256"
        }
      ],
      "name": "Released",
      "type": "event"
    },
    {
      "anonymous": false,
      "inputs": [
        {
          "indexed": true,
          "internalType": "bytes32",
          "name": "vestingScheduleId",
          "type": "bytes32"
        },
        {
          "indexed": false,
          "internalType": "uint256",
          "name": "unreleasedAmount",
          "type": "uint256"
        },
        {
          "indexed": false,
          "internalType": "uint256",
          "name": "timestamp",
          "type": "uint256"
        }
      ],
      "name": "VestingRevoked",
      "type": "event"
    },
    {
      "stateMutability": "payable",
      "type": "fallback"
    },
    {
      "inputs": [
        {
          "internalType": "uint128",
          "name": "_discordId",
          "type": "uint128"
        },
        {
          "internalType": "address",
          "name": "_beneficiary",
          "type": "address"
        }
      ],
      "name": "claimDiscordId",
      "outputs": [],
      "stateMutability": "nonpayable",
      "type": "function"
    },
    {
      "inputs": [
        {
          "internalType": "address",
          "name": "_beneficiary",
          "type": "address"
        }
      ],
      "name": "computeNextVestingScheduleIdForAddress",
      "outputs": [
        {
          "internalType": "bytes32",
          "name": "",
          "type": "bytes32"
        }
      ],
      "stateMutability": "view",
      "type": "function"
    },
    {
      "inputs": [
        {
          "internalType": "uint128",
          "name": "_discordId",
          "type": "uint128"
        }
      ],
      "name": "computeNextVestingScheduleIdForDiscordId",
      "outputs": [
        {
          "internalType": "bytes32",
          "name": "",
          "type": "bytes32"
        }
      ],
      "stateMutability": "view",
      "type": "function"
    },
    {
      "inputs": [
        {
          "internalType": "bytes32",
          "name": "vestingScheduleId",
          "type": "bytes32"
        }
      ],
      "name": "computeReleasableAmount",
      "outputs": [
        {
          "internalType": "uint256",
          "name": "",
          "type": "uint256"
        }
      ],
      "stateMutability": "view",
      "type": "function"
    },
    {
      "inputs": [
        {
          "internalType": "uint256",
          "name": "discordId",
          "type": "uint256"
        },
        {
          "internalType": "uint256",
          "name": "index",
          "type": "uint256"
        }
      ],
      "name": "computeVestingScheduleIdForDiscordIdAndIndex",
      "outputs": [
        {
          "internalType": "bytes32",
          "name": "",
          "type": "bytes32"
        }
      ],
      "stateMutability": "pure",
      "type": "function"
    },
    {
      "inputs": [
        {
          "internalType": "uint128",
          "name": "_discordId",
          "type": "uint128"
        },
        {
          "internalType": "uint64",
          "name": "_airdropId",
          "type": "uint64"
        },
        {
          "internalType": "uint64",
          "name": "_start",
          "type": "uint64"
        },
        {
          "internalType": "uint64",
          "name": "_cliff",
          "type": "uint64"
        },
        {
          "internalType": "uint64",
          "name": "_duration",
          "type": "uint64"
        },
        {
          "internalType": "uint64",
          "name": "_slicePeriodSeconds",
          "type": "uint64"
        },
        {
          "internalType": "bool",
          "name": "_revocable",
          "type": "bool"
        },
        {
          "internalType": "uint128",
          "name": "_amount",
          "type": "uint128"
        }
      ],
      "name": "createVestingSchedule",
      "outputs": [],
      "stateMutability": "nonpayable",
      "type": "function"
    },
    {
      "inputs": [
        {
          "internalType": "uint128[]",
          "name": "_discordIds",
          "type": "uint128[]"
        },
        {
          "internalType": "uint64",
          "name": "_airdropId",
          "type": "uint64"
        },
        {
          "internalType": "uint64",
          "name": "_start",
          "type": "uint64"
        },
        {
          "internalType": "uint64",
          "name": "_cliff",
          "type": "uint64"
        },
        {
          "internalType": "uint64",
          "name": "_duration",
          "type": "uint64"
        },
        {
          "internalType": "uint64",
          "name": "_slicePeriodSeconds",
          "type": "uint64"
        },
        {
          "internalType": "bool",
          "name": "_revocable",
          "type": "bool"
        },
        {
          "internalType": "uint128[]",
          "name": "_amounts",
          "type": "uint128[]"
        }
      ],
      "name": "createVestingSchedulesBatch",
      "outputs": [],
      "stateMutability": "nonpayable",
      "type": "function"
    },
    {
      "inputs": [
        {
          "internalType": "uint128",
          "name": "_discordId",
          "type": "uint128"
        }
      ],
      "name": "getAddressByDiscordId",
      "outputs": [
        {
          "internalType": "address",
          "name": "",
          "type": "address"
        }
      ],
      "stateMutability": "view",
      "type": "function"
    },
    {
      "inputs": [
        {
          "internalType": "bytes32",
          "name": "vestingScheduleId",
          "type": "bytes32"
        }
      ],
      "name": "getAirdropId",
      "outputs": [
        {
          "internalType": "uint256",
          "name": "",
          "type": "uint256"
        }
      ],
      "stateMutability": "view",
      "type": "function"
    },
    {
      "inputs": [
        {
          "internalType": "address",
          "name": "_beneficiary",
          "type": "address"
        }
      ],
      "name": "getDiscordIdByAddress",
      "outputs": [
        {
          "internalType": "uint256",
          "name": "",
          "type": "uint256"
        }
      ],
      "stateMutability": "view",
      "type": "function"
    },
    {
      "inputs": [
        {
          "internalType": "address",
          "name": "_beneficiary",
          "type": "address"
        }
      ],
      "name": "getLastVestingScheduleForAddress",
      "outputs": [
        {
          "components": [
            {
              "internalType": "uint128",
              "name": "discordId",
              "type": "uint128"
            },
            {
              "internalType": "uint64",
              "name": "airdropId",
              "type": "uint64"
            },
            {
              "internalType": "bool",
              "name": "revocable",
              "type": "bool"
            },
            {
              "internalType": "bool",
              "name": "revoked",
              "type": "bool"
            },
            {
              "internalType": "uint128",
              "name": "amountTotal",
              "type": "uint128"
            },
            {
              "internalType": "uint128",
              "name": "released",
              "type": "uint128"
            },
            {
              "internalType": "uint64",
              "name": "cliff",
              "type": "uint64"
            },
            {
              "internalType": "uint64",
              "name": "start",
              "type": "uint64"
            },
            {
              "internalType": "uint64",
              "name": "duration",
              "type": "uint64"
            },
            {
              "internalType": "uint64",
              "name": "slicePeriodSeconds",
              "type": "uint64"
            }
          ],
          "internalType": "struct TokenVesting.VestingSchedule",
          "name": "",
          "type": "tuple"
        }
      ],
      "stateMutability": "view",
      "type": "function"
    },
    {
      "inputs": [
        {
          "internalType": "uint128",
          "name": "_discordId",
          "type": "uint128"
        }
      ],
      "name": "getLastVestingScheduleForDiscordId",
      "outputs": [
        {
          "components": [
            {
              "internalType": "uint128",
              "name": "discordId",
              "type": "uint128"
            },
            {
              "internalType": "uint64",
              "name": "airdropId",
              "type": "uint64"
            },
            {
              "internalType": "bool",
              "name": "revocable",
              "type": "bool"
            },
            {
              "internalType": "bool",
              "name": "revoked",
              "type": "bool"
            },
            {
              "internalType": "uint128",
              "name": "amountTotal",
              "type": "uint128"
            },
            {
              "internalType": "uint128",
              "name": "released",
              "type": "uint128"
            },
            {
              "internalType": "uint64",
              "name": "cliff",
              "type": "uint64"
            },
            {
              "internalType": "uint64",
              "name": "start",
              "type": "uint64"
            },
            {
              "internalType": "uint64",
              "name": "duration",
              "type": "uint64"
            },
            {
              "internalType": "uint64",
              "name": "slicePeriodSeconds",
              "type": "uint64"
            }
          ],
          "internalType": "struct TokenVesting.VestingSchedule",
          "name": "",
          "type": "tuple"
        }
      ],
      "stateMutability": "view",
      "type": "function"
    },
    {
      "inputs": [
        {
          "internalType": "uint256",
          "name": "index",
          "type": "uint256"
        }
      ],
      "name": "getVestingIdAtIndex",
      "outputs": [
        {
          "internalType": "bytes32",
          "name": "",
          "type": "bytes32"
        }
      ],
      "stateMutability": "view",
      "type": "function"
    },
    {
      "inputs": [
        {
          "internalType": "bytes32",
          "name": "vestingScheduleId",
          "type": "bytes32"
        }
      ],
      "name": "getVestingSchedule",
      "outputs": [
        {
          "components": [
            {
              "internalType": "uint128",
              "name": "discordId",
              "type": "uint128"
            },
            {
              "internalType": "uint64",
              "name": "airdropId",
              "type": "uint64"
            },
            {
              "internalType": "bool",
              "name": "revocable",
              "type": "bool"
            },
            {
              "internalType": "bool",
              "name": "revoked",
              "type": "bool"
            },
            {
              "internalType": "uint128",
              "name": "amountTotal",
              "type": "uint128"
            },
            {
              "internalType": "uint128",
              "name": "released",
              "type": "uint128"
            },
            {
              "internalType": "uint64",
              "name": "cliff",
              "type": "uint64"
            },
            {
              "internalType": "uint64",
              "name": "start",
              "type": "uint64"
            },
            {
              "internalType": "uint64",
              "name": "duration",
              "type": "uint64"
            },
            {
              "internalType": "uint64",
              "name": "slicePeriodSeconds",
              "type": "uint64"
            }
          ],
          "internalType": "struct TokenVesting.VestingSchedule",
          "name": "",
          "type": "tuple"
        }
      ],
      "stateMutability": "view",
      "type": "function"
    },
    {
      "inputs": [
        {
          "internalType": "address",
          "name": "beneficiary",
          "type": "address"
        },
        {
          "internalType": "uint256",
          "name": "index",
          "type": "uint256"
        }
      ],
      "name": "getVestingScheduleByAddressAndIndex",
      "outputs": [
        {
          "components": [
            {
              "internalType": "uint128",
              "name": "discordId",
              "type": "uint128"
            },
            {
              "internalType": "uint64",
              "name": "airdropId",
              "type": "uint64"
            },
            {
              "internalType": "bool",
              "name": "revocable",
              "type": "bool"
            },
            {
              "internalType": "bool",
              "name": "revoked",
              "type": "bool"
            },
            {
              "internalType": "uint128",
              "name": "amountTotal",
              "type": "uint128"
            },
            {
              "internalType": "uint128",
              "name": "released",
              "type": "uint128"
            },
            {
              "internalType": "uint64",
              "name": "cliff",
              "type": "uint64"
            },
            {
              "internalType": "uint64",
              "name": "start",
              "type": "uint64"
            },
            {
              "internalType": "uint64",
              "name": "duration",
              "type": "uint64"
            },
            {
              "internalType": "uint64",
              "name": "slicePeriodSeconds",
              "type": "uint64"
            }
          ],
          "internalType": "struct TokenVesting.VestingSchedule",
          "name": "",
          "type": "tuple"
        }
      ],
      "stateMutability": "view",
      "type": "function"
    },
    {
      "inputs": [
        {
          "internalType": "uint256",
          "name": "discordId",
          "type": "uint256"
        },
        {
          "internalType": "uint256",
          "name": "index",
          "type": "uint256"
        }
      ],
      "name": "getVestingScheduleByDiscordIdAndIndex",
      "outputs": [
        {
          "components": [
            {
              "internalType": "uint128",
              "name": "discordId",
              "type": "uint128"
            },
            {
              "internalType": "uint64",
              "name": "airdropId",
              "type": "uint64"
            },
            {
              "internalType": "bool",
              "name": "revocable",
              "type": "bool"
            },
            {
              "internalType": "bool",
              "name": "revoked",
              "type": "bool"
            },
            {
              "internalType": "uint128",
              "name": "amountTotal",
              "type": "uint128"
            },
            {
              "internalType": "uint128",
              "name": "released",
              "type": "uint128"
            },
            {
              "internalType": "uint64",
              "name": "cliff",
              "type": "uint64"
            },
            {
              "internalType": "uint64",
              "name": "start",
              "type": "uint64"
            },
            {
              "internalType": "uint64",
              "name": "duration",
              "type": "uint64"
            },
            {
              "internalType": "uint64",
              "name": "slicePeriodSeconds",
              "type": "uint64"
            }
          ],
          "internalType": "struct TokenVesting.VestingSchedule",
          "name": "",
          "type": "tuple"
        }
      ],
      "stateMutability": "view",
      "type": "function"
    },
    {
      "inputs": [],
      "name": "getVestingSchedulesCount",
      "outputs": [
        {
          "internalType": "uint256",
          "name": "",
          "type": "uint256"
        }
      ],
      "stateMutability": "view",
      "type": "function"
    },
    {
      "inputs": [
        {
          "internalType": "address",
          "name": "_beneficiary",
          "type": "address"
        }
      ],
      "name": "getVestingSchedulesCountByAddress",
      "outputs": [
        {
          "internalType": "uint256",
          "name": "",
          "type": "uint256"
        }
      ],
      "stateMutability": "view",
      "type": "function"
    },
    {
      "inputs": [
        {
          "internalType": "uint128",
          "name": "_discordId",
          "type": "uint128"
        }
      ],
      "name": "getVestingSchedulesCountByDiscordId",
      "outputs": [
        {
          "internalType": "uint256",
          "name": "",
          "type": "uint256"
        }
      ],
      "stateMutability": "view",
      "type": "function"
    },
    {
      "inputs": [],
      "name": "getVestingSchedulesTotalAmount",
      "outputs": [
        {
          "internalType": "uint256",
          "name": "",
          "type": "uint256"
        }
      ],
      "stateMutability": "view",
      "type": "function"
    },
    {
      "inputs": [],
      "name": "getWithdrawableAmount",
      "outputs": [
        {
          "internalType": "uint256",
          "name": "",
          "type": "uint256"
        }
      ],
      "stateMutability": "view",
      "type": "function"
    },
    {
      "inputs": [],
      "name": "owner",
      "outputs": [
        {
          "internalType": "address",
          "name": "",
          "type": "address"
        }
      ],
      "stateMutability": "view",
      "type": "function"
    },
    {
      "inputs": [
        {
          "internalType": "bytes32",
          "name": "vestingScheduleId",
          "type": "bytes32"
        },
        {
          "internalType": "uint128",
          "name": "amount",
          "type": "uint128"
        }
      ],
      "name": "release",
      "outputs": [],
      "stateMutability": "nonpayable",
      "type": "function"
    },
    {
      "inputs": [
        {
          "internalType": "bytes32",
          "name": "vestingScheduleId",
          "type": "bytes32"
        }
      ],
      "name": "revoke",
      "outputs": [],
      "stateMutability": "nonpayable",
      "type": "function"
    },
    {
      "inputs": [
        {
          "internalType": "address",
          "name": "newOwner",
          "type": "address"
        }
      ],
      "name": "transferOwnership",
      "outputs": [],
      "stateMutability": "nonpayable",
      "type": "function"
    },
    {
      "inputs": [
        {
          "internalType": "uint256",
          "name": "amount",
          "type": "uint256"
        }
      ],
      "name": "withdraw",
      "outputs": [],
      "stateMutability": "nonpayable",
      "type": "function"
    },
    {
      "stateMutability": "payable",
      "type": "receive"
    }
  ],
  "bytecode": "0x60806040526001805534801561001457600080fd5b50600080546001600160a01b031916339081178255604051909182917f8be0079c531659141344cd1fd0a4f28419497f9722a3daafe3b4186f6b6457e0908290a350611fad806100656000396000f3fe6080604052600436106101735760003560e01c80636faaf99e116100c8578063a7be262311610084578063f2fde38b11610061578063f2fde38b146104d6578063f51321d7146104f6578063f9079b3714610516578063fa0114821461053657005b8063a7be262314610476578063b75c7dc614610496578063ea1bb3d5146104b657005b80636faaf99e1461038a5780637bcf43f7146103aa5780638da5cb5b1461040157806390be10cc1461042157806396d2302b146104365780639ef346b41461045657005b806345f23f131161012f5780634adf5e6d1161010c5780634adf5e6d1461030a5780635e0abc6a1461032a578063646fd9091461034a57806364775ca41461036a57005b806345f23f131461029657806348deb471146102d55780634a326a0e146102ea57005b8063130836171461017c57806317671a46146101a057806318d88f5d146101d95780631c35f681146101f95780632064cc0f146102265780632e1a7d4d1461027657005b3661017a57005b005b34801561018857600080fd5b506002545b6040519081526020015b60405180910390f35b3480156101ac57600080fd5b5061018d6101bb3660046119a0565b6001600160801b039081166000908152600560205260409020541690565b3480156101e557600080fd5b5061018d6101f43660046119d2565b610573565b34801561020557600080fd5b506102196102143660046119a0565b6105b7565b60405161019791906119ed565b34801561023257600080fd5b5061018d6102413660046119d2565b6001600160a01b03166000908152600760209081526040808320546001600160801b0390811684526005909252909120541690565b34801561028257600080fd5b5061017a610291366004611ada565b6106ba565b3480156102a257600080fd5b5061018d6102b13660046119d2565b6001600160a01b03166000908152600760205260409020546001600160801b031690565b3480156102e157600080fd5b5060045461018d565b3480156102f657600080fd5b5061018d610305366004611af3565b6107cd565b34801561031657600080fd5b5061017a610325366004611bf3565b6107f9565b34801561033657600080fd5b5061017a610345366004611cba565b6108ee565b34801561035657600080fd5b5061017a610365366004611d51565b610e5a565b34801561037657600080fd5b5061017a610385366004611d7d565b611283565b34801561039657600080fd5b506102196103a53660046119d2565b61130d565b3480156103b657600080fd5b506103e96103c53660046119a0565b6001600160801b03166000908152600660205260409020546001600160a01b031690565b6040516001600160a01b039091168152602001610197565b34801561040d57600080fd5b506000546103e9906001600160a01b031681565b34801561042d57600080fd5b5061018d61135f565b34801561044257600080fd5b5061018d6104513660046119a0565b611374565b34801561046257600080fd5b50610219610471366004611ada565b61139b565b34801561048257600080fd5b50610219610491366004611af3565b611459565b3480156104a257600080fd5b5061017a6104b1366004611ada565b611475565b3480156104c257600080fd5b5061018d6104d1366004611ada565b6115e5565b3480156104e257600080fd5b5061017a6104f13660046119d2565b6116e1565b34801561050257600080fd5b50610219610511366004611da7565b611756565b34801561052257600080fd5b5061018d610531366004611ada565b61178d565b34801561054257600080fd5b5061018d610551366004611ada565b600090815260036020526040902054600160801b90046001600160401b031690565b6001600160a01b0381166000908152600760209081526040808320546001600160801b039081168085526005909352908320546105b19291166107cd565b92915050565b6105bf611930565b6001600160801b0380831660008181526005602052604081205460039391926105ff9290916105f19160019116611de7565b6001600160801b03166107cd565b8152602080820192909252604090810160002081516101408101835281546001600160801b0380821683526001600160401b03600160801b80840482169785019790975260ff600160c01b8085048216151597860197909752600160c81b90930490921615156060840152600184015480821660808501528690041660a083015260029092015480831660c0830152600160401b8104831660e083015293840482166101008201529190920490911661012082015292915050565b6001546001146106fe5760405162461bcd60e51b815260206004820152600a6024820152695245454e5452414e435960b01b60448201526064015b60405180910390fd5b60026001556000546001600160a01b0316331461072d5760405162461bcd60e51b81526004016106f590611e0e565b8061073661135f565b10156107985760405162461bcd60e51b815260206004820152602b60248201527f546f6b656e56657374696e673a206e6f7420656e6f756768207769746864726160448201526a7761626c652066756e647360a81b60648201526084016106f5565b604051339082156108fc029083906000818181858888f193505050501580156107c5573d6000803e3d6000fd5b505060018055565b604080516020808201949094528082019290925280518083038201815260609092019052805191012090565b6000546001600160a01b031633146108235760405162461bcd60e51b81526004016106f590611e0e565b8751815181146108835760405162461bcd60e51b815260206004820152602560248201527f546f6b656e56657374696e673a204d69736d617463686564206172726179206c6044820152640cadccee8d60db1b60648201526084016106f5565b60005b818110156108e2576108d08a82815181106108a3576108a3611e34565b60200260200101518a8a8a8a8a8a8a89815181106108c3576108c3611e34565b60200260200101516108ee565b806108da81611e4a565b915050610886565b50505050505050505050565b6000546001600160a01b031633146109185760405162461bcd60e51b81526004016106f590611e0e565b806001600160801b031661092a61135f565b10156109a85760405162461bcd60e51b815260206004820152604160248201527f546f6b656e56657374696e673a2063616e6e6f7420637265617465207665737460448201527f696e67207363686564756c653b20696e73756666696369656e7420746f6b656e6064820152607360f81b608482015260a4016106f5565b6000846001600160401b031611610a0c5760405162461bcd60e51b815260206004820152602260248201527f546f6b656e56657374696e673a206475726174696f6e206d757374206265203e604482015261020360f41b60648201526084016106f5565b6000816001600160801b031611610a655760405162461bcd60e51b815260206004820181905260248201527f546f6b656e56657374696e673a20616d6f756e74206d757374206265203e203060448201526064016106f5565b6001836001600160401b03161015610ad55760405162461bcd60e51b815260206004820152602d60248201527f546f6b656e56657374696e673a20736c696365506572696f645365636f6e647360448201526c206d757374206265203e3d203160981b60648201526084016106f5565b846001600160401b0316846001600160401b03161015610b475760405162461bcd60e51b815260206004820152602760248201527f546f6b656e56657374696e673a206475726174696f6e206d757374206265203e6044820152661e9031b634b33360c91b60648201526084016106f5565b6000610b5289611374565b90506000610b608789611e63565b90506040518061014001604052808b6001600160801b031681526020018a6001600160401b031681526020018515158152602001600015158152602001846001600160801b0316815260200160006001600160801b03168152602001826001600160401b03168152602001896001600160401b03168152602001876001600160401b03168152602001866001600160401b03168152506003600084815260200190815260200160002060008201518160000160006101000a8154816001600160801b0302191690836001600160801b0316021790555060208201518160000160106101000a8154816001600160401b0302191690836001600160401b0316021790555060408201518160000160186101000a81548160ff02191690831515021790555060608201518160000160196101000a81548160ff02191690831515021790555060808201518160010160006101000a8154816001600160801b0302191690836001600160801b0316021790555060a08201518160010160106101000a8154816001600160801b0302191690836001600160801b0316021790555060c08201518160020160006101000a8154816001600160401b0302191690836001600160401b0316021790555060e08201518160020160086101000a8154816001600160401b0302191690836001600160401b031602179055506101008201518160020160106101000a8154816001600160401b0302191690836001600160401b031602179055506101208201518160020160186101000a8154816001600160401b0302191690836001600160401b03160217905550905050826001600160801b0316600454610dcd9190611e83565b60045560028054600181019091557f405787fa12a823e0f2b7631cc41b3ba8828b3321ca811111fa75cd3aa3bb5ace018290556001600160801b03808b16600090815260056020526040812080549092169190610e2983611e96565b91906101000a8154816001600160801b0302191690836001600160801b031602179055505050505050505050505050565b600154600114610e995760405162461bcd60e51b815260206004820152600a6024820152695245454e5452414e435960b01b60448201526064016106f5565b60026001556000828152600360205260409020548290600160c81b900460ff1615610ed65760405162461bcd60e51b81526004016106f590611ebc565b600083815260036020908152604080832080546001600160801b031684526006909252909120546001600160a01b031680610f795760405162461bcd60e51b815260206004820152603f60248201527f546f6b656e56657374696e673a204e6f2062656e65666963696172792061646460448201527f72657373206d617070656420666f72207468697320446973636f72642049440060648201526084016106f5565b81546001600160801b03166000908152600660205260408120549054336001600160a01b0392831681149291909116148180610fb25750805b61102f5760405162461bcd60e51b815260206004820152604260248201527f546f6b656e56657374696e673a206f6e6c792062656e6566696369617279206160448201527f6e64206f776e65722063616e2072656c656173652076657374656420746f6b656064820152616e7360f01b608482015260a4016106f5565b604080516101408101825285546001600160801b0380821683526001600160401b03600160801b8084048216602086015260ff600160c01b8086048216151597870197909752600160c81b909404909316151560608501526001890154808316608086015283900490911660a0840152600288015480821660c0850152600160401b8104821660e085015291820481166101008401529290049091166101208201526000906110dd90611815565b9050866001600160801b031681101561115e5760405162461bcd60e51b815260206004820152603d60248201527f546f6b656e56657374696e673a2063616e6e6f742072656c6561736520746f6b60448201527f656e732c206e6f7420656e6f7567682076657374656420746f6b656e7300000060648201526084016106f5565b600185015461117e908890600160801b90046001600160801b0316611f0b565b6001860180546001600160801b03928316600160801b02908316179055855481166000908152600660205260409020546004546001600160a01b03909116916111ca91908a1690611f2b565b6004556040516001600160a01b038216906001600160801b038a1680156108fc02916000818181858888f1935050505015801561120b573d6000803e3d6000fd5b5085546001600160801b03166000908152600660205260409020546001600160a01b03167f82e416ba72d10e709b5de7ac16f5f49ff1d94f22d55bf582d353d3c313a1e8dd8942604080516001600160801b03909316835260208301919091520160405180910390a250506001805550505050505050565b6000546001600160a01b031633146112ad5760405162461bcd60e51b81526004016106f590611e0e565b6001600160801b03909116600081815260066020908152604080832080546001600160a01b039096166001600160a01b031990961686179055938252600790529190912080546fffffffffffffffffffffffffffffffff19169091179055565b611315611930565b6001600160a01b0382166000908152600760209081526040808320546001600160801b03908116808552600590935290832054600393926105ff9290916105f19160019116611de7565b60006004544761136f9190611f2b565b905090565b6001600160801b0380821660008181526005602052604081205490926105b19291166107cd565b6113a3611930565b5060009081526003602090815260409182902082516101408101845281546001600160801b0380821683526001600160401b03600160801b80840482169685019690965260ff600160c01b8085048216151598860198909852600160c81b90930490921615156060840152600184015480821660808501528590041660a083015260029092015480831660c0830152600160401b8104831660e08301529283048216610100820152929091041661012082015290565b611461611930565b61146e61047184846107cd565b9392505050565b6000546001600160a01b0316331461149f5760405162461bcd60e51b81526004016106f590611e0e565b6000818152600360205260409020548190600160c81b900460ff16156114d75760405162461bcd60e51b81526004016106f590611ebc565b60008281526003602052604090208054600160c01b900460ff1661154c5760405162461bcd60e51b815260206004820152602660248201527f546f6b656e56657374696e673a2076657374696e67206973206e6f74207265766044820152656f6361626c6560d01b60648201526084016106f5565b6001810154600090611570906001600160801b03600160801b820481169116611de7565b6001600160801b03169050806004546115899190611f2b565b600455815460ff60c81b1916600160c81b178255837fb75a850197a1dfed82de6f87faeef2b62ad8f842fdee2fa6496e1c33013ff31e826115c74290565b6040805192835260208301919091520160405180910390a250505050565b6000818152600360205260408120548290600160c81b900460ff161561161d5760405162461bcd60e51b81526004016106f590611ebc565b60008381526003602090815260409182902082516101408101845281546001600160801b0380821683526001600160401b03600160801b80840482169685019690965260ff600160c01b8085048216151598860198909852600160c81b90930490921615156060840152600184015480821660808501528590041660a0830152600283015480821660c0840152600160401b8104821660e08401529384048116610100830152939092049092166101208201526116d990611815565b949350505050565b6000546001600160a01b0316331461170b5760405162461bcd60e51b81526004016106f590611e0e565b600080546001600160a01b0319166001600160a01b0383169081178255604051909133917f8be0079c531659141344cd1fd0a4f28419497f9722a3daafe3b4186f6b6457e09190a350565b61175e611930565b6001600160a01b0383166000908152600760205260409020546001600160801b03166116d961047182856107cd565b600061179860025490565b82106117f05760405162461bcd60e51b815260206004820152602160248201527f546f6b656e56657374696e673a20696e646578206f7574206f6620626f756e646044820152607360f81b60648201526084016106f5565b6002828154811061180357611803611e34565b90600052602060002001549050919050565b60c081015160009042906001600160401b0316811080611836575082606001515b156118445750600092915050565b8261010001518360e001516118599190611e63565b6001600160401b0316811061188c578260a00151836080015161187c9190611de7565b6001600160801b03169392505050565b60008360e001516001600160401b0316826118a79190611f2b565b6101208501519091506001600160401b031660006118c58284611f3e565b905060006118d38383611f60565b905060008761010001516001600160401b03168289608001516001600160801b03166118ff9190611f60565b6119099190611f3e565b90508760a001516001600160801b0316816119249190611f2b565b98975050505050505050565b6040805161014081018252600080825260208201819052918101829052606081018290526080810182905260a0810182905260c0810182905260e08101829052610100810182905261012081019190915290565b80356001600160801b038116811461199b57600080fd5b919050565b6000602082840312156119b257600080fd5b61146e82611984565b80356001600160a01b038116811461199b57600080fd5b6000602082840312156119e457600080fd5b61146e826119bb565b81516001600160801b0316815261014081016020830151611a1960208401826001600160401b03169052565b506040830151611a2d604084018215159052565b506060830151611a41606084018215159052565b506080830151611a5c60808401826001600160801b03169052565b5060a0830151611a7760a08401826001600160801b03169052565b5060c0830151611a9260c08401826001600160401b03169052565b5060e0830151611aad60e08401826001600160401b03169052565b50610100838101516001600160401b03908116918401919091526101209384015116929091019190915290565b600060208284031215611aec57600080fd5b5035919050565b60008060408385031215611b0657600080fd5b50508035926020909101359150565b634e487b7160e01b600052604160045260246000fd5b600082601f830112611b3c57600080fd5b813560206001600160401b0380831115611b5857611b58611b15565b8260051b604051601f19603f83011681018181108482111715611b7d57611b7d611b15565b604052938452858101830193838101925087851115611b9b57600080fd5b83870191505b84821015611bc157611bb282611984565b83529183019190830190611ba1565b979650505050505050565b80356001600160401b038116811461199b57600080fd5b8035801515811461199b57600080fd5b600080600080600080600080610100898b031215611c1057600080fd5b88356001600160401b0380821115611c2757600080fd5b611c338c838d01611b2b565b9950611c4160208c01611bcc565b9850611c4f60408c01611bcc565b9750611c5d60608c01611bcc565b9650611c6b60808c01611bcc565b9550611c7960a08c01611bcc565b9450611c8760c08c01611be3565b935060e08b0135915080821115611c9d57600080fd5b50611caa8b828c01611b2b565b9150509295985092959890939650565b600080600080600080600080610100898b031215611cd757600080fd5b611ce089611984565b9750611cee60208a01611bcc565b9650611cfc60408a01611bcc565b9550611d0a60608a01611bcc565b9450611d1860808a01611bcc565b9350611d2660a08a01611bcc565b9250611d3460c08a01611be3565b9150611d4260e08a01611984565b90509295985092959890939650565b60008060408385031215611d6457600080fd5b82359150611d7460208401611984565b90509250929050565b60008060408385031215611d9057600080fd5b611d9983611984565b9150611d74602084016119bb565b60008060408385031215611dba57600080fd5b611dc3836119bb565b946020939093013593505050565b634e487b7160e01b600052601160045260246000fd5b6001600160801b03828116828216039080821115611e0757611e07611dd1565b5092915050565b6020808252600c908201526b15539055551213d49256915160a21b604082015260600190565b634e487b7160e01b600052603260045260246000fd5b600060018201611e5c57611e5c611dd1565b5060010190565b6001600160401b03818116838216019080821115611e0757611e07611dd1565b808201808211156105b1576105b1611dd1565b60006001600160801b03808316818103611eb257611eb2611dd1565b6001019392505050565b6020808252602f908201527f546f6b656e56657374696e673a2056657374696e67207363686564756c65206860408201526e185cc81899595b881c995d9bdad959608a1b606082015260800190565b6001600160801b03818116838216019080821115611e0757611e07611dd1565b818103818111156105b1576105b1611dd1565b600082611f5b57634e487b7160e01b600052601260045260246000fd5b500490565b80820281158282048414176105b1576105b1611dd156fea264697066735822122074ad4ed0df506719bf81897149bc5dc8f3289e397435bd5a4eddbc32fa5f83e864736f6c63430008130033",
  "linkReferences": {},
  "deployedLinkReferences": {}
}